{
  "_format": "hh-sol-artifact-1",
  "contractName": "CryptoLoan",
  "sourceName": "contracts/Cryptoloan.sol",
  "abi": [
    {
      "inputs": [],
      "stateMutability": "nonpayable",
      "type": "constructor"
    },
    {
      "anonymous": false,
      "inputs": [
        {
          "indexed": true,
          "internalType": "address",
          "name": "borrower",
          "type": "address"
        },
        {
          "indexed": false,
          "internalType": "uint256",
          "name": "loanId",
          "type": "uint256"
        },
        {
          "indexed": true,
          "internalType": "address",
          "name": "collateralToken",
          "type": "address"
        },
        {
          "indexed": false,
          "internalType": "uint256",
          "name": "collateralReturned",
          "type": "uint256"
        }
      ],
      "name": "CollateralReturned",
      "type": "event"
    },
    {
      "anonymous": false,
      "inputs": [
        {
          "indexed": true,
          "internalType": "address",
          "name": "borrower",
          "type": "address"
        },
        {
          "indexed": false,
          "internalType": "uint256",
          "name": "loanId",
          "type": "uint256"
        },
        {
          "indexed": false,
          "internalType": "uint256",
          "name": "newCollateralAmount",
          "type": "uint256"
        }
      ],
      "name": "CollateralUpdated",
      "type": "event"
    },
    {
      "anonymous": false,
      "inputs": [
        {
          "indexed": true,
          "internalType": "address",
          "name": "borrower",
          "type": "address"
        },
        {
          "indexed": false,
          "internalType": "uint256",
          "name": "loanId",
          "type": "uint256"
        },
        {
          "indexed": true,
          "internalType": "address",
          "name": "loanToken",
          "type": "address"
        },
        {
          "indexed": false,
          "internalType": "uint256",
          "name": "amountRepaid",
          "type": "uint256"
        }
      ],
      "name": "LoanRepaid",
      "type": "event"
    },
    {
      "anonymous": false,
      "inputs": [
        {
          "indexed": true,
          "internalType": "address",
          "name": "borrower",
          "type": "address"
        },
        {
          "indexed": false,
          "internalType": "uint256",
          "name": "loanId",
          "type": "uint256"
        },
        {
          "indexed": true,
          "internalType": "address",
          "name": "collateralToken",
          "type": "address"
        },
        {
          "indexed": false,
          "internalType": "uint256",
          "name": "collateralAmount",
          "type": "uint256"
        },
        {
          "indexed": true,
          "internalType": "address",
          "name": "loanToken",
          "type": "address"
        },
        {
          "indexed": false,
          "internalType": "uint256",
          "name": "loanAmount",
          "type": "uint256"
        },
        {
          "indexed": false,
          "internalType": "uint256",
          "name": "interestAmount",
          "type": "uint256"
        }
      ],
      "name": "LoanRequested",
      "type": "event"
    },
    {
      "anonymous": false,
      "inputs": [
        {
          "indexed": true,
          "internalType": "address",
          "name": "currency",
          "type": "address"
        },
        {
          "indexed": false,
          "internalType": "bool",
          "name": "status",
          "type": "bool"
        }
      ],
      "name": "SupportedCurrencyUpdated",
      "type": "event"
    },
    {
      "anonymous": false,
      "inputs": [
        {
          "indexed": true,
          "internalType": "address",
          "name": "token",
          "type": "address"
        },
        {
          "indexed": false,
          "internalType": "uint256",
          "name": "rate",
          "type": "uint256"
        }
      ],
      "name": "TokenRateUpdated",
      "type": "event"
    },
    {
      "inputs": [],
      "name": "COLLATERAL_FACTOR",
      "outputs": [
        {
          "internalType": "uint256",
          "name": "",
          "type": "uint256"
        }
      ],
      "stateMutability": "view",
      "type": "function"
    },
    {
      "inputs": [],
      "name": "INTEREST_RATE",
      "outputs": [
        {
          "internalType": "uint256",
          "name": "",
          "type": "uint256"
        }
      ],
      "stateMutability": "view",
      "type": "function"
    },
    {
      "inputs": [
        {
          "internalType": "address",
          "name": "",
          "type": "address"
        }
      ],
      "name": "isSupportedCollateralToken",
      "outputs": [
        {
          "internalType": "bool",
          "name": "",
          "type": "bool"
        }
      ],
      "stateMutability": "view",
      "type": "function"
    },
    {
      "inputs": [
        {
          "internalType": "address",
          "name": "",
          "type": "address"
        }
      ],
      "name": "isSupportedLoanToken",
      "outputs": [
        {
          "internalType": "bool",
          "name": "",
          "type": "bool"
        }
      ],
      "stateMutability": "view",
      "type": "function"
    },
    {
      "inputs": [
        {
          "internalType": "address",
          "name": "",
          "type": "address"
        }
      ],
      "name": "latestTokenRates",
      "outputs": [
        {
          "internalType": "uint256",
          "name": "",
          "type": "uint256"
        }
      ],
      "stateMutability": "view",
      "type": "function"
    },
    {
      "inputs": [],
      "name": "loanDurationInSeconds",
      "outputs": [
        {
          "internalType": "uint256",
          "name": "",
          "type": "uint256"
        }
      ],
      "stateMutability": "view",
      "type": "function"
    },
    {
      "inputs": [],
      "name": "owner",
      "outputs": [
        {
          "internalType": "address",
          "name": "",
          "type": "address"
        }
      ],
      "stateMutability": "view",
      "type": "function"
    },
    {
      "inputs": [
        {
          "internalType": "address",
          "name": "loanToken",
          "type": "address"
        },
        {
          "internalType": "uint256",
          "name": "_loanId",
          "type": "uint256"
        }
      ],
      "name": "repayLoan",
      "outputs": [],
      "stateMutability": "nonpayable",
      "type": "function"
    },
    {
      "inputs": [
        {
          "internalType": "address",
          "name": "loanToken",
          "type": "address"
        },
        {
          "internalType": "uint256",
          "name": "_loanId",
          "type": "uint256"
        }
      ],
      "name": "repayLoaninnativeCurrency",
      "outputs": [],
      "stateMutability": "payable",
      "type": "function"
    },
    {
      "inputs": [
        {
          "internalType": "address",
          "name": "_collateralToken",
          "type": "address"
        },
        {
          "internalType": "uint256",
          "name": "_collateralAmount",
          "type": "uint256"
        },
        {
          "internalType": "address",
          "name": "_loanToken",
          "type": "address"
        },
        {
          "internalType": "uint256",
          "name": "_loanAmount",
          "type": "uint256"
        }
      ],
      "name": "requestLoan",
      "outputs": [],
      "stateMutability": "nonpayable",
      "type": "function"
    },
    {
      "inputs": [
        {
          "internalType": "address",
          "name": "_newOwner",
          "type": "address"
        }
      ],
      "name": "setOwner",
      "outputs": [],
      "stateMutability": "nonpayable",
      "type": "function"
    },
    {
      "inputs": [
        {
          "internalType": "address",
          "name": "",
          "type": "address"
        }
      ],
      "name": "tokenRates",
      "outputs": [
        {
          "internalType": "uint256",
          "name": "",
          "type": "uint256"
        }
      ],
      "stateMutability": "view",
      "type": "function"
    },
    {
      "inputs": [
        {
          "internalType": "uint256",
          "name": "_loanId",
          "type": "uint256"
        },
        {
          "internalType": "uint256",
          "name": "_updatedCollateralAmount",
          "type": "uint256"
        }
      ],
      "name": "updateCollateralAmount",
      "outputs": [],
      "stateMutability": "nonpayable",
      "type": "function"
    },
    {
      "inputs": [
        {
          "internalType": "address",
          "name": "_collateralToken",
          "type": "address"
        },
        {
          "internalType": "bool",
          "name": "_status",
          "type": "bool"
        }
      ],
      "name": "updateCollateralTokenCurrency",
      "outputs": [],
      "stateMutability": "nonpayable",
      "type": "function"
    },
    {
      "inputs": [
        {
          "internalType": "address",
          "name": "_loanToken",
          "type": "address"
        },
        {
          "internalType": "bool",
          "name": "_status",
          "type": "bool"
        }
      ],
      "name": "updateLoanTokenCurrency",
      "outputs": [],
      "stateMutability": "nonpayable",
      "type": "function"
    },
    {
      "inputs": [
        {
          "internalType": "address",
          "name": "_token",
          "type": "address"
        },
        {
          "internalType": "uint256",
          "name": "_rate",
          "type": "uint256"
        }
      ],
      "name": "updateTokenRate",
      "outputs": [],
      "stateMutability": "nonpayable",
      "type": "function"
    },
    {
      "inputs": [
        {
          "internalType": "address",
          "name": "",
          "type": "address"
        }
      ],
      "name": "userLoanCount",
      "outputs": [
        {
          "internalType": "uint256",
          "name": "",
          "type": "uint256"
        }
      ],
      "stateMutability": "view",
      "type": "function"
    },
    {
      "inputs": [
        {
          "internalType": "address",
          "name": "",
          "type": "address"
        },
        {
          "internalType": "uint256",
          "name": "",
          "type": "uint256"
        }
      ],
      "name": "userLoans",
      "outputs": [
        {
          "internalType": "address",
          "name": "collateralToken",
          "type": "address"
        },
        {
          "internalType": "uint256",
          "name": "collateralAmount",
          "type": "uint256"
        },
        {
          "internalType": "address",
          "name": "loanToken",
          "type": "address"
        },
        {
          "internalType": "uint256",
          "name": "loanAmount",
          "type": "uint256"
        },
        {
          "internalType": "uint256",
          "name": "interestAmount",
          "type": "uint256"
        },
        {
          "internalType": "uint256",
          "name": "startTime",
          "type": "uint256"
        },
        {
          "internalType": "bool",
          "name": "active",
          "type": "bool"
        }
      ],
      "stateMutability": "view",
      "type": "function"
    },
    {
      "inputs": [
        {
          "internalType": "address",
          "name": "_token",
          "type": "address"
        },
        {
          "internalType": "uint256",
          "name": "_amount",
          "type": "uint256"
        }
      ],
      "name": "withdrawCollateral",
      "outputs": [],
      "stateMutability": "nonpayable",
      "type": "function"
    },
    {
      "stateMutability": "payable",
      "type": "receive"
    }
  ],
  "bytecode": "0x608060405261025860015534801561001657600080fd5b50336000806101000a81548173ffffffffffffffffffffffffffffffffffffffff021916908373ffffffffffffffffffffffffffffffffffffffff160217905550600680600073d5decf4d8a6da6e619b9a152b9fe76721e52d26073ffffffffffffffffffffffffffffffffffffffff1673ffffffffffffffffffffffffffffffffffffffff16815260200190815260200160002081905550600560066000733add0d140057303aeaa689c867ca2ea3a7f844ad73ffffffffffffffffffffffffffffffffffffffff1673ffffffffffffffffffffffffffffffffffffffff16815260200190815260200160002081905550600a6006600061101073ffffffffffffffffffffffffffffffffffffffff1673ffffffffffffffffffffffffffffffffffffffff1681526020019081526020016000208190555061302d8061015e6000396000f3fe6080604052600436106101185760003560e01c80638da5cb5b116100a0578063b9cebbc911610064578063b9cebbc914610397578063ba02a005146103c2578063c0d24033146103ff578063d8bad5bd1461043c578063e064de0e1461047f5761011f565b80638da5cb5b146102ad57806393a595f5146102d8578063a183059714610301578063af85e1d51461033e578063b99bccc21461037b5761011f565b8063226ac321116100e7578063226ac321146101ca578063350c35e9146101f357806358231ac41461021c5780635b72a33a1461024557806386403125146102705761011f565b806313af40351461012457806317f49e051461014d578063186939bc1461017857806319b19afd146101a15761011f565b3661011f57005b600080fd5b34801561013057600080fd5b5061014b600480360381019061014691906120e8565b6104a8565b005b34801561015957600080fd5b50610162610579565b60405161016f919061212e565b60405180910390f35b34801561018457600080fd5b5061019f600480360381019061019a9190612181565b61057e565b005b3480156101ad57600080fd5b506101c860048036038101906101c391906121ed565b610726565b005b3480156101d657600080fd5b506101f160048036038101906101ec919061222d565b61097a565b005b3480156101ff57600080fd5b5061021a6004803603810190610215919061222d565b610ae2565b005b34801561022857600080fd5b50610243600480360381019061023e9190612181565b610c51565b005b34801561025157600080fd5b5061025a610df9565b604051610267919061212e565b60405180910390f35b34801561027c57600080fd5b50610297600480360381019061029291906120e8565b610dfe565b6040516102a4919061212e565b60405180910390f35b3480156102b957600080fd5b506102c2610e16565b6040516102cf919061227c565b60405180910390f35b3480156102e457600080fd5b506102ff60048036038101906102fa919061222d565b610e3a565b005b34801561030d57600080fd5b50610328600480360381019061032391906120e8565b61130d565b604051610335919061212e565b60405180910390f35b34801561034a57600080fd5b50610365600480360381019061036091906120e8565b611325565b604051610372919061212e565b60405180910390f35b6103956004803603810190610390919061222d565b61133d565b005b3480156103a357600080fd5b506103ac611727565b6040516103b9919061212e565b60405180910390f35b3480156103ce57600080fd5b506103e960048036038101906103e491906120e8565b61172d565b6040516103f691906122a6565b60405180910390f35b34801561040b57600080fd5b50610426600480360381019061042191906120e8565b61174d565b60405161043391906122a6565b60405180910390f35b34801561044857600080fd5b50610463600480360381019061045e919061222d565b61176d565b60405161047697969594939291906122c1565b60405180910390f35b34801561048b57600080fd5b506104a660048036038101906104a19190612330565b611809565b005b60008054906101000a900473ffffffffffffffffffffffffffffffffffffffff1673ffffffffffffffffffffffffffffffffffffffff163373ffffffffffffffffffffffffffffffffffffffff1614610536576040517f08c379a000000000000000000000000000000000000000000000000000000000815260040161052d9061241a565b60405180910390fd5b806000806101000a81548173ffffffffffffffffffffffffffffffffffffffff021916908373ffffffffffffffffffffffffffffffffffffffff16021790555050565b604681565b60008054906101000a900473ffffffffffffffffffffffffffffffffffffffff1673ffffffffffffffffffffffffffffffffffffffff163373ffffffffffffffffffffffffffffffffffffffff161461060c576040517f08c379a00000000000000000000000000000000000000000000000000000000081526004016106039061241a565b60405180910390fd5b81600073ffffffffffffffffffffffffffffffffffffffff168173ffffffffffffffffffffffffffffffffffffffff160361067c576040517f08c379a000000000000000000000000000000000000000000000000000000000815260040161067390612486565b60405180910390fd5b81600460008573ffffffffffffffffffffffffffffffffffffffff1673ffffffffffffffffffffffffffffffffffffffff16815260200190815260200160002060006101000a81548160ff0219169083151502179055508273ffffffffffffffffffffffffffffffffffffffff167f2cbc7e6c71c5a424eddc391bcc334375cdc045649beb21d7b194b989421d59268360405161071991906122a6565b60405180910390a2505050565b6000600260003373ffffffffffffffffffffffffffffffffffffffff1673ffffffffffffffffffffffffffffffffffffffff168152602001908152602001600020600084815260200190815260200160002090508060060160009054906101000a900460ff166107cb576040517f08c379a00000000000000000000000000000000000000000000000000000000081526004016107c2906124f2565b60405180910390fd5b60006107ff8260000160009054906101000a900473ffffffffffffffffffffffffffffffffffffffff168360010154611fe8565b9050806108308360000160009054906101000a900473ffffffffffffffffffffffffffffffffffffffff1685611fe8565b11610870576040517f08c379a0000000000000000000000000000000000000000000000000000000008152600401610867906125aa565b60405180910390fd5b60008260000160009054906101000a900473ffffffffffffffffffffffffffffffffffffffff1690508073ffffffffffffffffffffffffffffffffffffffff166323b872dd3330876040518463ffffffff1660e01b81526004016108d6939291906125ca565b6020604051808303816000875af11580156108f5573d6000803e3d6000fd5b505050506040513d601f19601f820116820180604052508101906109199190612616565b610958576040517f08c379a000000000000000000000000000000000000000000000000000000000815260040161094f906126b5565b60405180910390fd5b8383600101600082825461096c9190612704565b925050819055505050505050565b60008054906101000a900473ffffffffffffffffffffffffffffffffffffffff1673ffffffffffffffffffffffffffffffffffffffff163373ffffffffffffffffffffffffffffffffffffffff1614610a08576040517f08c379a00000000000000000000000000000000000000000000000000000000081526004016109ff9061241a565b60405180910390fd5b80600660008473ffffffffffffffffffffffffffffffffffffffff1673ffffffffffffffffffffffffffffffffffffffff1681526020019081526020016000208190555080600760008473ffffffffffffffffffffffffffffffffffffffff1673ffffffffffffffffffffffffffffffffffffffff168152602001908152602001600020819055508173ffffffffffffffffffffffffffffffffffffffff167fbf17989d036eb0afa407e498b6ecfa942272ed46e60faf1e69ac6590d6b7bfb082604051610ad6919061212e565b60405180910390a25050565b60008054906101000a900473ffffffffffffffffffffffffffffffffffffffff1673ffffffffffffffffffffffffffffffffffffffff163373ffffffffffffffffffffffffffffffffffffffff1614610b70576040517f08c379a0000000000000000000000000000000000000000000000000000000008152600401610b679061241a565b60405180910390fd5b8173ffffffffffffffffffffffffffffffffffffffff1663a9059cbb60008054906101000a900473ffffffffffffffffffffffffffffffffffffffff16836040518363ffffffff1660e01b8152600401610bcb929190612738565b6020604051808303816000875af1158015610bea573d6000803e3d6000fd5b505050506040513d601f19601f82011682018060405250810190610c0e9190612616565b610c4d576040517f08c379a0000000000000000000000000000000000000000000000000000000008152600401610c44906127ad565b60405180910390fd5b5050565b60008054906101000a900473ffffffffffffffffffffffffffffffffffffffff1673ffffffffffffffffffffffffffffffffffffffff163373ffffffffffffffffffffffffffffffffffffffff1614610cdf576040517f08c379a0000000000000000000000000000000000000000000000000000000008152600401610cd69061241a565b60405180910390fd5b81600073ffffffffffffffffffffffffffffffffffffffff168173ffffffffffffffffffffffffffffffffffffffff1603610d4f576040517f08c379a0000000000000000000000000000000000000000000000000000000008152600401610d4690612486565b60405180910390fd5b81600560008573ffffffffffffffffffffffffffffffffffffffff1673ffffffffffffffffffffffffffffffffffffffff16815260200190815260200160002060006101000a81548160ff0219169083151502179055508273ffffffffffffffffffffffffffffffffffffffff167f2cbc7e6c71c5a424eddc391bcc334375cdc045649beb21d7b194b989421d592683604051610dec91906122a6565b60405180910390a2505050565b600c81565b60066020528060005260406000206000915090505481565b60008054906101000a900473ffffffffffffffffffffffffffffffffffffffff1681565b6000600260003373ffffffffffffffffffffffffffffffffffffffff1673ffffffffffffffffffffffffffffffffffffffff168152602001908152602001600020600083815260200190815260200160002090508060060160009054906101000a900460ff16610edf576040517f08c379a0000000000000000000000000000000000000000000000000000000008152600401610ed6906124f2565b60405180910390fd5b6001548160050154610ef19190612704565b421115610f33576040517f08c379a0000000000000000000000000000000000000000000000000000000008152600401610f2a90612819565b60405180910390fd5b600081600401548260030154610f499190612704565b90506000610f7f8360000160009054906101000a900473ffffffffffffffffffffffffffffffffffffffff168460010154611fe8565b90506000610fb58460020160009054906101000a900473ffffffffffffffffffffffffffffffffffffffff168560030154611fe8565b905080821015610ffa576040517f08c379a0000000000000000000000000000000000000000000000000000000008152600401610ff1906128d1565b60405180910390fd5b60008460020160009054906101000a900473ffffffffffffffffffffffffffffffffffffffff1690508073ffffffffffffffffffffffffffffffffffffffff166323b872dd3330876040518463ffffffff1660e01b8152600401611060939291906125ca565b6020604051808303816000875af115801561107f573d6000803e3d6000fd5b505050506040513d601f19601f820116820180604052508101906110a39190612616565b6110e2576040517f08c379a00000000000000000000000000000000000000000000000000000000081526004016110d99061293d565b60405180910390fd5b60008560000160009054906101000a900473ffffffffffffffffffffffffffffffffffffffff1690508073ffffffffffffffffffffffffffffffffffffffff1663a9059cbb3388600101546040518363ffffffff1660e01b815260040161114a929190612738565b6020604051808303816000875af1158015611169573d6000803e3d6000fd5b505050506040513d601f19601f8201168201806040525081019061118d9190612616565b6111cc576040517f08c379a00000000000000000000000000000000000000000000000000000000081526004016111c3906129cf565b60405180910390fd5b8560000160009054906101000a900473ffffffffffffffffffffffffffffffffffffffff1673ffffffffffffffffffffffffffffffffffffffff163373ffffffffffffffffffffffffffffffffffffffff167fde1559a8a9559b0313974d9a3393fd151a40670335facf7c5c4122a4092a1c5d8989600101546040516112539291906129ef565b60405180910390a360008660060160006101000a81548160ff0219169083151502179055508560020160009054906101000a900473ffffffffffffffffffffffffffffffffffffffff1673ffffffffffffffffffffffffffffffffffffffff163373ffffffffffffffffffffffffffffffffffffffff167fc701461b765fed67c198ae04ba7565349a5cddf506bdb333ee116a3f28fc083289886040516112fb9291906129ef565b60405180910390a35050505050505050565b60076020528060005260406000206000915090505481565b60036020528060005260406000206000915090505481565b6000600260003373ffffffffffffffffffffffffffffffffffffffff1673ffffffffffffffffffffffffffffffffffffffff168152602001908152602001600020600083815260200190815260200160002090508060060160009054906101000a900460ff166113e2576040517f08c379a00000000000000000000000000000000000000000000000000000000081526004016113d9906124f2565b60405180910390fd5b60015481600501546113f49190612704565b421115611436576040517f08c379a000000000000000000000000000000000000000000000000000000000815260040161142d90612819565b60405180910390fd5b60008160040154826003015461144c9190612704565b905060006114828360000160009054906101000a900473ffffffffffffffffffffffffffffffffffffffff168460010154611fe8565b905060006114b88460020160009054906101000a900473ffffffffffffffffffffffffffffffffffffffff168560030154611fe8565b9050808210156114fd576040517f08c379a00000000000000000000000000000000000000000000000000000000081526004016114f4906128d1565b60405180910390fd5b60008460000160009054906101000a900473ffffffffffffffffffffffffffffffffffffffff1690508073ffffffffffffffffffffffffffffffffffffffff1663a9059cbb3387600101546040518363ffffffff1660e01b8152600401611565929190612738565b6020604051808303816000875af1158015611584573d6000803e3d6000fd5b505050506040513d601f19601f820116820180604052508101906115a89190612616565b6115e7576040517f08c379a00000000000000000000000000000000000000000000000000000000081526004016115de906129cf565b60405180910390fd5b8460000160009054906101000a900473ffffffffffffffffffffffffffffffffffffffff1673ffffffffffffffffffffffffffffffffffffffff163373ffffffffffffffffffffffffffffffffffffffff167fde1559a8a9559b0313974d9a3393fd151a40670335facf7c5c4122a4092a1c5d88886001015460405161166e9291906129ef565b60405180910390a360008560060160006101000a81548160ff0219169083151502179055508460020160009054906101000a900473ffffffffffffffffffffffffffffffffffffffff1673ffffffffffffffffffffffffffffffffffffffff163373ffffffffffffffffffffffffffffffffffffffff167fc701461b765fed67c198ae04ba7565349a5cddf506bdb333ee116a3f28fc083288876040516117169291906129ef565b60405180910390a350505050505050565b60015481565b60046020528060005260406000206000915054906101000a900460ff1681565b60056020528060005260406000206000915054906101000a900460ff1681565b6002602052816000526040600020602052806000526040600020600091509150508060000160009054906101000a900473ffffffffffffffffffffffffffffffffffffffff16908060010154908060020160009054906101000a900473ffffffffffffffffffffffffffffffffffffffff16908060030154908060040154908060050154908060060160009054906101000a900460ff16905087565b6000831161184c576040517f08c379a000000000000000000000000000000000000000000000000000000000815260040161184390612a8a565b60405180910390fd5b6000811161188f576040517f08c379a000000000000000000000000000000000000000000000000000000000815260040161188690612b1c565b60405180910390fd5b600a600360003373ffffffffffffffffffffffffffffffffffffffff1673ffffffffffffffffffffffffffffffffffffffff1681526020019081526020016000205410611911576040517f08c379a000000000000000000000000000000000000000000000000000000000815260040161190890612bae565b60405180910390fd5b600460008573ffffffffffffffffffffffffffffffffffffffff1673ffffffffffffffffffffffffffffffffffffffff16815260200190815260200160002060009054906101000a900460ff1661199d576040517f08c379a000000000000000000000000000000000000000000000000000000000815260040161199490612c1a565b60405180910390fd5b600560008373ffffffffffffffffffffffffffffffffffffffff1673ffffffffffffffffffffffffffffffffffffffff16815260200190815260200160002060009054906101000a900460ff16611a29576040517f08c379a0000000000000000000000000000000000000000000000000000000008152600401611a2090612c86565b60405180910390fd5b6000611a358585611fe8565b90506000611a438484611fe8565b905060006001600360003373ffffffffffffffffffffffffffffffffffffffff1673ffffffffffffffffffffffffffffffffffffffff16815260200190815260200160002054611a939190612704565b9050600360003373ffffffffffffffffffffffffffffffffffffffff1673ffffffffffffffffffffffffffffffffffffffff1681526020019081526020016000206000815480929190611ae590612ca6565b91905055506040518060e001604052808873ffffffffffffffffffffffffffffffffffffffff1681526020018781526020018673ffffffffffffffffffffffffffffffffffffffff1681526020018581526020016301e13380600154600c86611b4e9190612cee565b611b589190612cee565b611b629190612d5f565b815260200142815260200160011515815250600260003373ffffffffffffffffffffffffffffffffffffffff1673ffffffffffffffffffffffffffffffffffffffff168152602001908152602001600020600083815260200190815260200160002060008201518160000160006101000a81548173ffffffffffffffffffffffffffffffffffffffff021916908373ffffffffffffffffffffffffffffffffffffffff1602179055506020820151816001015560408201518160020160006101000a81548173ffffffffffffffffffffffffffffffffffffffff021916908373ffffffffffffffffffffffffffffffffffffffff160217905550606082015181600301556080820151816004015560a0820151816005015560c08201518160060160006101000a81548160ff021916908315150217905550905050600083606484611cad9190612cee565b611cb79190612d5f565b90506046811115611cfd576040517f08c379a0000000000000000000000000000000000000000000000000000000008152600401611cf490612e02565b60405180910390fd5b61101073ffffffffffffffffffffffffffffffffffffffff168673ffffffffffffffffffffffffffffffffffffffff1603611dab573373ffffffffffffffffffffffffffffffffffffffff166108fc869081150290604051600060405180830381858888f19350505050611da6576040517f08c379a0000000000000000000000000000000000000000000000000000000008152600401611d9d90612e94565b60405180910390fd5b611e6f565b60008690508073ffffffffffffffffffffffffffffffffffffffff1663a9059cbb33886040518363ffffffff1660e01b8152600401611deb929190612738565b6020604051808303816000875af1158015611e0a573d6000803e3d6000fd5b505050506040513d601f19601f82011682018060405250810190611e2e9190612616565b611e6d576040517f08c379a0000000000000000000000000000000000000000000000000000000008152600401611e6490612e94565b60405180910390fd5b505b60008890508073ffffffffffffffffffffffffffffffffffffffff166323b872dd33308b6040518463ffffffff1660e01b8152600401611eb1939291906125ca565b6020604051808303816000875af1158015611ed0573d6000803e3d6000fd5b505050506040513d601f19601f82011682018060405250810190611ef49190612616565b611f33576040517f08c379a0000000000000000000000000000000000000000000000000000000008152600401611f2a90612f26565b60405180910390fd5b8673ffffffffffffffffffffffffffffffffffffffff168973ffffffffffffffffffffffffffffffffffffffff163373ffffffffffffffffffffffffffffffffffffffff167fc85ef9a8ea6ce13a462d0ec0afc83bff2499dfc1e120f4a602d2ace514626c8d868c8b6301e13380600154600c8d611fb19190612cee565b611fbb9190612cee565b611fc59190612d5f565b604051611fd59493929190612f46565b60405180910390a4505050505050505050565b600080600660008573ffffffffffffffffffffffffffffffffffffffff1673ffffffffffffffffffffffffffffffffffffffff16815260200190815260200160002054905060008111612070576040517f08c379a000000000000000000000000000000000000000000000000000000000815260040161206790612fd7565b60405180910390fd5b808361207c9190612cee565b91505092915050565b600080fd5b600073ffffffffffffffffffffffffffffffffffffffff82169050919050565b60006120b58261208a565b9050919050565b6120c5816120aa565b81146120d057600080fd5b50565b6000813590506120e2816120bc565b92915050565b6000602082840312156120fe576120fd612085565b5b600061210c848285016120d3565b91505092915050565b6000819050919050565b61212881612115565b82525050565b6000602082019050612143600083018461211f565b92915050565b60008115159050919050565b61215e81612149565b811461216957600080fd5b50565b60008135905061217b81612155565b92915050565b6000806040838503121561219857612197612085565b5b60006121a6858286016120d3565b92505060206121b78582860161216c565b9150509250929050565b6121ca81612115565b81146121d557600080fd5b50565b6000813590506121e7816121c1565b92915050565b6000806040838503121561220457612203612085565b5b6000612212858286016121d8565b9250506020612223858286016121d8565b9150509250929050565b6000806040838503121561224457612243612085565b5b6000612252858286016120d3565b9250506020612263858286016121d8565b9150509250929050565b612276816120aa565b82525050565b6000602082019050612291600083018461226d565b92915050565b6122a081612149565b82525050565b60006020820190506122bb6000830184612297565b92915050565b600060e0820190506122d6600083018a61226d565b6122e3602083018961211f565b6122f0604083018861226d565b6122fd606083018761211f565b61230a608083018661211f565b61231760a083018561211f565b61232460c0830184612297565b98975050505050505050565b6000806000806080858703121561234a57612349612085565b5b6000612358878288016120d3565b9450506020612369878288016121d8565b935050604061237a878288016120d3565b925050606061238b878288016121d8565b91505092959194509250565b600082825260208201905092915050565b7f4f6e6c7920636f6e7472616374206f776e65722063616e2063616c6c2074686960008201527f732066756e6374696f6e00000000000000000000000000000000000000000000602082015250565b6000612404602a83612397565b915061240f826123a8565b604082019050919050565b60006020820190508181036000830152612433816123f7565b9050919050565b7f5a65726f2061646472657373206e6f7420616c6c6f7765640000000000000000600082015250565b6000612470601883612397565b915061247b8261243a565b602082019050919050565b6000602082019050818103600083015261249f81612463565b9050919050565b7f4c6f616e206e6f7420666f756e64206f7220616c726561647920726570616964600082015250565b60006124dc602083612397565b91506124e7826124a6565b602082019050919050565b6000602082019050818103600083015261250b816124cf565b9050919050565b7f5570646174656420636f6c6c61746572616c20616d6f756e742073686f756c6460008201527f2062652067726561746572207468616e20746865206f726967696e616c20616d60208201527f6f756e7400000000000000000000000000000000000000000000000000000000604082015250565b6000612594604483612397565b915061259f82612512565b606082019050919050565b600060208201905081810360008301526125c381612587565b9050919050565b60006060820190506125df600083018661226d565b6125ec602083018561226d565b6125f9604083018461211f565b949350505050565b60008151905061261081612155565b92915050565b60006020828403121561262c5761262b612085565b5b600061263a84828501612601565b91505092915050565b7f4661696c656420746f207472616e73666572207570646174656420636f6c6c6160008201527f746572616c20616d6f756e7420746f20636f6e74726163740000000000000000602082015250565b600061269f603883612397565b91506126aa82612643565b604082019050919050565b600060208201905081810360008301526126ce81612692565b9050919050565b7f4e487b7100000000000000000000000000000000000000000000000000000000600052601160045260246000fd5b600061270f82612115565b915061271a83612115565b9250828201905080821115612732576127316126d5565b5b92915050565b600060408201905061274d600083018561226d565b61275a602083018461211f565b9392505050565b7f436f6c6c61746572616c207769746864726177616c206661696c656400000000600082015250565b6000612797601c83612397565b91506127a282612761565b602082019050919050565b600060208201905081810360008301526127c68161278a565b9050919050565b7f4c6f616e206475726174696f6e20657870697265640000000000000000000000600082015250565b6000612803601583612397565b915061280e826127cd565b602082019050919050565b60006020820190508181036000830152612832816127f6565b9050919050565b7f436f6c6c61746572616c2076616c75652073616d65206f72206c65737320746860008201527f616e206c6f616e2076616c756520736f20706c6561736520757064617465207460208201527f686520636f6c6c61746572616c20616d6f756e74000000000000000000000000604082015250565b60006128bb605483612397565b91506128c682612839565b606082019050919050565b600060208201905081810360008301526128ea816128ae565b9050919050565b7f4661696c656420746f207472616e73666572206c6f616e20616d6f756e740000600082015250565b6000612927601e83612397565b9150612932826128f1565b602082019050919050565b600060208201905081810360008301526129568161291a565b9050919050565b7f4661696c656420746f207472616e7366657220636f6c6c61746572616c20746f60008201527f6b656e73206261636b20746f20626f72726f7765720000000000000000000000602082015250565b60006129b9603583612397565b91506129c48261295d565b604082019050919050565b600060208201905081810360008301526129e8816129ac565b9050919050565b6000604082019050612a04600083018561211f565b612a11602083018461211f565b9392505050565b7f436f6c6c61746572616c20616d6f756e74206d7573742062652067726561746560008201527f72207468616e2030000000000000000000000000000000000000000000000000602082015250565b6000612a74602883612397565b9150612a7f82612a18565b604082019050919050565b60006020820190508181036000830152612aa381612a67565b9050919050565b7f4c6f616e20616d6f756e74206d7573742062652067726561746572207468616e60008201527f2030000000000000000000000000000000000000000000000000000000000000602082015250565b6000612b06602283612397565b9150612b1182612aaa565b604082019050919050565b60006020820190508181036000830152612b3581612af9565b9050919050565b7f4d6178696d756d20313020616374697665206c6f616e7320706572207573657260008201527f20616c6c6f776564000000000000000000000000000000000000000000000000602082015250565b6000612b98602883612397565b9150612ba382612b3c565b604082019050919050565b60006020820190508181036000830152612bc781612b8b565b9050919050565b7f436f6c6c61746572616c20746f6b656e206e6f7420737570706f727465640000600082015250565b6000612c04601e83612397565b9150612c0f82612bce565b602082019050919050565b60006020820190508181036000830152612c3381612bf7565b9050919050565b7f4c6f616e20746f6b656e206e6f7420737570706f727465640000000000000000600082015250565b6000612c70601883612397565b9150612c7b82612c3a565b602082019050919050565b60006020820190508181036000830152612c9f81612c63565b9050919050565b6000612cb182612115565b91507fffffffffffffffffffffffffffffffffffffffffffffffffffffffffffffffff8203612ce357612ce26126d5565b5b600182019050919050565b6000612cf982612115565b9150612d0483612115565b9250828202612d1281612115565b91508282048414831517612d2957612d286126d5565b5b5092915050565b7f4e487b7100000000000000000000000000000000000000000000000000000000600052601260045260246000fd5b6000612d6a82612115565b9150612d7583612115565b925082612d8557612d84612d30565b5b828204905092915050565b7f4c6f616e2d746f2d76616c756520726174696f206578636565647320616c6c6f60008201527f776564206c696d69740000000000000000000000000000000000000000000000602082015250565b6000612dec602983612397565b9150612df782612d90565b604082019050919050565b60006020820190508181036000830152612e1b81612ddf565b9050919050565b7f4661696c656420746f207472616e73666572206c6f616e20616d6f756e74207460008201527f6f20626f72726f77657200000000000000000000000000000000000000000000602082015250565b6000612e7e602a83612397565b9150612e8982612e22565b604082019050919050565b60006020820190508181036000830152612ead81612e71565b9050919050565b7f4661696c656420746f207472616e7366657220636f6c6c61746572616c20616d60008201527f6f756e7420746f20636f6e747261637400000000000000000000000000000000602082015250565b6000612f10603083612397565b9150612f1b82612eb4565b604082019050919050565b60006020820190508181036000830152612f3f81612f03565b9050919050565b6000608082019050612f5b600083018761211f565b612f68602083018661211f565b612f75604083018561211f565b612f82606083018461211f565b95945050505050565b7f546f6b656e2072617465206e6f74207365740000000000000000000000000000600082015250565b6000612fc1601283612397565b9150612fcc82612f8b565b602082019050919050565b60006020820190508181036000830152612ff081612fb4565b905091905056fea26469706673582212208a036357d729f7511f67a7aa8dbdeb3e914dae7f2282082ccdf08962842de52064736f6c63430008140033",
  "linkReferences": {},
  "deployedLinkReferences": {}
}